:100000000C9446000C9493000C9493000C94930071
:100010000C9493000C9493000C9493000C94930014
:100020000C9493000C9493000C9493000C94930004
:100030000C9493000C9493000C9493000C949300F4
:100040000C9493000C9493000C9493000C949300E4
:100050000C9493000C9493000C9493000C949300D4
:100060000C9493000C9493000C9493000C949300C4
:100070000C9493000C9493000C9493000C949300B4
:100080000C9493000C9493000C94930011241FBEC5
:10009000CFEFD0E1DEBFCDBF0E9452000C947A00BA
:0400A000F894FFCF02
:1000A4008FEF8ABB8BBB84BB85BB17B880E487B951
:1000B400E1E6F0E080818E7F808386B1836886B933
:1000C4000E9485000E948F00813011F4A89A06C016
:1000D4000E948F00811102C085B315BA2FE788E30F
:1000E40091E0215080409040E1F700C00000EACF49
:1000F400EC010E9498000E949700CE010E94990092
:06010400CE010E949500EF
:10010A001092900088E089B988E18AB98EE08093DC
:04011A0095000895AF
:08011E005F9BFECF8CB1089538
:040126000C94000035
:04012A000E945000DF
:02012E00089532
:02013000089530
:0201320008952E
:00000001FF
