:100000000C9446000C9495000C9495000C9495006B
:100010000C9495000C9495000C9495000C9495000C
:100020000C9495000C9495000C9495000C949500FC
:100030000C9495000C9495000C9495000C949500EC
:100040000C9472000C9495000C9495000C949500FF
:100050000C9495000C9495000C9495000C949500CC
:100060000C9495000C9495000C9495000C949500BC
:100070000C9495000C9495000C9495000C949500AC
:100080000C9495000C9495000C94950011241FBEBF
:10009000CFEFD0E1DEBFCDBFECE8F0E040E019C02B
:1000A000B791A79137912791079107FD0EC09791BE
:1000B0008791EF01F92FE82F0BBF07900D92A21740
:1000C000B307D9F7FE011BBE04C01D92A217B307E8
:1000D000E1F7EC38F40721F70E9492000C948700B6
:0400E000F894FFCFC2
:1000E4001F921FB61F9211248F9388B3811104C0ED
:1000F400C29A8AEF82BF04C08DED82BF88B318BA5A
:0A0104008F911F901FBE1F901895E9
:10010E00EC010E949A000E949900CE010E949B0071
:06011E00CE010E949700D3
:0601240080E090E0089568
:04012A000C94000031
:04012E000E947000BB
:0201320008952E
:0201340008952C
:0201360008952A
:00000001FF
