:100000000C9446000C949E000C949E000C949E0050
:100010000C949E000C949E000C949E000C949E00E8
:100020000C949E000C949E000C949E000C949E00D8
:100030000C949E000C949E000C949E000C949E00C8
:100040000C9472000C949E000C949E000C949E00E4
:100050000C949E000C949E000C949E000C949E00A8
:100060000C949E000C949E000C949E000C949E0098
:100070000C949E000C949E000C949E000C949E0088
:100080000C949E000C949E000C949E0011241FBEA4
:10009000CFEFD0E1DEBFCDBFECE8F0E040E019C02B
:1000A000B791A79137912791079107FD0EC09791BE
:1000B0008791EF01F92FE82F0BBF07900D92A21740
:1000C000B307D9F7FE011BBE04C01D92A217B307E8
:1000D000E1F7EC38F40721F70E9487000C949300B5
:0400E000F894FFCFC2
:1000E4001F921FB61F9211248F9388B3811105C0EC
:1000F40081E088BB86EE82BF03C08BE982BF18BA59
:0A0104008F911F901FBE1F901895E9
:10010E008FEF87BB83B7826083BF81EC82BF87B7D7
:08011E00816087BF7894FFCFD8
:10012600EC010E94A3000E94A200CE010E94A4003E
:06013600CE010E94A000B2
:04013C000C9400001F
:040140000E947000A9
:0201440008951C
:0201460008951A
:02014800089518
:00000001FF
