:100000000C9446000C9478000C9478000C947800C2
:100010000C9478000C9478000C9478000C94780080
:100020000C9478000C9478000C9478000C94780070
:100030000C9478000C9478000C9478000C94780060
:100040000C9478000C9478000C9478000C94780050
:100050000C9478000C9478000C9478000C94780040
:100060000C9478000C9478000C9478000C94780030
:100070000C9478000C9478000C9478000C94780020
:100080000C9478000C9478000C94780011241FBE16
:10009000CFEFD0E1DEBFCDBF0E9452000C946D00C7
:0400A000F894FFCF02
:1000A400D09A84B384BB8BB38BBB80E090E0989BE5
:1000B4000AC001962FE936E841E021503040404023
:1000C400E1F700C000008130910511F4D89AEFCF18
:0600D4008BB38BBBEACFE9
:1000DA00EC010E947D000E947C00CE010E947E00FD
:0600EA00CE010E947A0025
:0400F0000C9400006C
:0400F4000E94500016
:0200F800089569
:0200FA00089567
:0200FC00089565
:00000001FF
