:100000000C9446000C948F000C948F000C948F007D
:100010000C948F000C948F000C948F000C948F0024
:100020000C948F000C948F000C948F000C948F0014
:100030000C948F000C948F000C948F000C948F0004
:100040000C948F000C948F000C948F000C948F00F4
:100050000C948F000C948F000C948F000C948F00E4
:100060000C948F000C948F000C948F000C948F00D4
:100070000C948F000C948F000C948F000C948F00C4
:100080000C948F000C948F000C948F0011241FBED1
:10009000CFEFD0E1DEBFCDBF0E9452000C947600BE
:0400A000F894FFCF02
:1000A400A09A15BA17B880E487B9E1E6F0E0808138
:1000B4008E7F808386B1836886B90E9481000E9406
:1000C4008B00813011F4A89A05C00E948B00811125
:1000D40001C0A8982FE788E391E021508040904028
:0800E400E1F700C00000EBCFC2
:1000EC00EC010E9494000E949300CE010E949500A6
:0600FC00CE010E949100FC
:100102001092900088E089B988E18AB98EE08093E4
:0401120095000895B7
:080116005F9BFECF8CB1089540
:04011E000C9400003D
:040122000E945000E7
:0201260008953A
:02012800089538
:02012A00089536
:00000001FF
