:100000000C9446000C9402020C9402020C9402021E
:100010000C9402020C9402020C9402020C94020250
:100020000C9402020C9402020C9402020C94020240
:100030000C9402020C9402020C9402020C94020230
:100040000C9402020C9402020C9402020C94020220
:100050000C9402020C9402020C9402020C94020210
:100060000C9402020C9402020C9402020C94020200
:100070000C9402020C9402020C9402020C940202F0
:100080000C9402020C9402020C94020211241FBE72
:10009000CFEFD0E1DEBFCDBF0E9452000C94C6016D
:0400A000F894FFCF02
:1000A4008FEF87BB88BB8AB38F608ABB87B18360BD
:1000B40087B987B1806C87B986B1856886B9C8E08D
:1000C40004E0D2E011E00E94EC0188BBBC0180E0B6
:1000D40090E00E94320120E030E040E850E40E94C9
:1000E400FB0120E030E040E85AE30E94FB012AE0F3
:1000F40037ED43E250E40E94FB0120E030E040E8A9
:100104005EE30E94FB016B017C0120E030E0A90169
:100114000E94F601882364F020E030E040E85FE3C9
:10012400C701B6010E94F101181614F01BBBCBCF16
:1001340020E030E040E85FE3C701B6010E94F60129
:10014400181664F420E030E040E050E4C701B60142
:100154000E94F101181614F0DBBBB5CF20E030E0AB
:1001640040E050E4C701B6010E94F601181664F499
:1001740020E030E040E250E4C701B6010E94F10102
:0C018400181614F00BBB9FCFCBBB9DCF17
:100190000FC00E94D10138F00E94D80120F09523B1
:1001A00011F00C94E6010C94FF0111240C94E00171
:1001B0000E94930170F3959FC1F3950F50E0551F76
:1001C000629FF001729FBB27F00DB11D639FAA27AC
:1001D000F00DB11DAA1F649F6627B00DA11D661FFB
:1001E000829F2227B00DA11D621F739FB00DA11D1C
:1001F000621F839FA00D611D221F749F3327A00DD6
:10020000611D231F849F600D211D822F762F6A2F71
:1002100011249F5750409AF0F1F088234AF0EE0FD6
:10022000FF1FBB1F661F771F881F91505040A9F703
:100230009E3F510580F00C94E6010C94E0015F3F75
:10024000E4F3983ED4F3869577956795B795F7953F
:10025000E7959F5FC1F7FE2B880F911D96958795B7
:0402600097F908956D
:10026400E89409C097FB3EF490958095709561954C
:100274007F4F8F4F9F4F9923A9F0F92F96E9BB2702
:100284009395F695879577956795B795F111F8CF7E
:10029400FAF4BB0F11F460FF1BC06F5F7F4F8F4FE9
:1002A4009F4F16C0882311F096E911C0772321F0DF
:1002B4009EE8872F762F05C0662371F096E8862F77
:1002C40070E060E02AF09A95660F771F881FDAF7CE
:0A02D400880F9695879597F9089515
:1002DE00990F0008550FAA0BE0E8FEEF1616170649
:1002EE00E807F907C0F012161306E407F50798F0B1
:1002FE00621B730B840B950B39F40A2661F0232BCA
:10030E00242B252B21F408950A2609F4A140A69545
:08031E008FEF811D811D089580
:1003260057FD9058440F551F59F05F3F71F04795A0
:10033600880F97FB991F61F09F3F79F08795089585
:10034600121613061406551FF2CF4695F1DF08C0A4
:10035600161617061806991FF1CF869571056105C1
:04036600089408955A
:10036A00092E0394000C11F4882352F0BB0F40F4B9
:10037A00BF2B11F460FF04C06F5F7F4F8F4F9F4FF9
:02038A000895D4
:10038C00EC010E9407020E940602CE010E940802A4
:06039C00CE010E940402E4
:0E03A20000240A941616170618060906089578
:0E03B00000240A94121613061406050608957A
:0E03BE00E894BB2766277727CB0197F90895AF
:0C03CC0097F99F6780E870E060E00895FA
:0A03D800369A86B184B195B10895FC
:0A03E2000E946F0108F481E0089505
:0A03EC000E946F0108F48FEF0895DE
:0803F6000E94C8000C94B5013F
:0603FE009FEF80EC089562
:040404000C94000054
:040408000E945000FE
:02040C00089551
:02040E0008954F
:0204100008954D
:00000001FF
