:100000000C9446000C9499000C9499000C9499005F
:100010000C9499000C9499000C9499000C949900FC
:100020000C9499000C9499000C9499000C949900EC
:100030000C9499000C9499000C9499000C949900DC
:100040000C9499000C9499000C9499000C949900CC
:100050000C9499000C9499000C9499000C949900BC
:100060000C9499000C9499000C9499000C949900AC
:100070000C9499000C9499000C9499000C9499009C
:100080000C9499000C9499000C94990011241FBEB3
:10009000CFEFD0E1DEBFCDBF0E9452000C948000B4
:0400A000F894FFCF02
:1000A40087B317BA87B317BA17B880E487B986B18C
:1000B400856886B90E948B00B19B0FC02FE58BE544
:1000C40093E0215080409040E1F700C00000B19BD4
:1000D400F3CF86E30E949500EFCFB39BEDCF2FE5DE
:1000E4008BE593E0215080409040E1F700C0000090
:0C00F400B39BE2CF87E30E949500DECFB3
:10010000EC010E949E000E949D00CE010E949F0073
:06011000CE010E949B00DD
:100116001092900088E089B988E18AB98EE08093D0
:0401260095000895A3
:08012A005D9BFECF8CB9089526
:040132000C94000029
:040136000E945000D3
:02013A00089526
:02013C00089524
:02013E00089522
:00000001FF
